:020000040800F2
:10000000200A00209D010008A5010008A7010008A2
:10001000A9010008AB010008AD01000800000000C4
:10002000000000000000000000000000AF01000818
:10003000B101000800000000B30100081F2C0008F7
:10004000B7010008B7010008B7010008B7010008B0
:10005000B7010008B7010008B7010008B7010008A0
:10006000B7010008B7010008B7010008B701000890
:10007000B7010008B7010008B7010008B701000880
:10008000B7010008B7010008B7010008B701000870
:10009000B7010008B7010008B7010008B701000860
:1000A000B7010008B7010008B7010008B701000850
:1000B000152D0008B7010008B7010008B7010008B6
:1000C000B7010008B7010008B7010008752B000848
:1000D000B701000865310008B7010008B701000842
:1000E000B7010008B7010008B7010008B701000810
:1000F000B7010008B7010008B7010008B701000800
:10010000B7010008B7010008B7010008B7010008EF
:10011000B7010008B7010008B7010008B7010008DF
:10012000B7010008B7010008B7010008B7010008CF
:10013000B7010008B7010008B7010008B7010008BF
:10014000B7010008B7010008B7010008B7010008AF
:10015000B7010008B7010008B7010008B70100089F
:10016000B7010008B7010008B7010008B70100088F
:10017000B7010008B7010008B7010008000000003F
:10018000B7010008B7010008DFF80CD000F0F4FA5E
:1001900000480047FD360008200A00200648804736
:1001A00006480047FEE7FEE7FEE7FEE7FEE7FEE75C
:1001B000FEE7FEE7FEE7FEE7C12C00088901000824
:1001C00010B54843044603F0CDFA002805D00021BD
:1001D000002C02D0641E0155FAE710BD2DE9FE4F38
:1001E000804681EA0300C00F0C46009021F00041D8
:1001F00023F00045B8EB0200A94105D24046214654
:1002000090461C460B46024623F00040104347D060
:10021000270DC7F30A00C3F30A510290401A019058
:1002200040286BDAC3F3130040F4801B0098924619
:1002300020B10023D2EB030A63EB0B0B0198594664
:10024000C0F14002504600F091F906460D46504676
:100250005946019A00F099F910EB08006141002419
:1002600087EA115284EAE7731A4340D0009A62B3D6
:10027000019A012A4FEA075215DC001B61EB0201CB
:100280004FF0004202EA0752CDE90042001C41F55E
:10029000801132462B4600F0D0F903B0BDE8F08F54
:1002A00040462146F9E7001B61EB0201001C41F5C5
:1002B000801300185B412018A2F5001747EB0301DB
:1002C00040EAD570B6196D4111E06D084FEA360667
:1002D00045EAC0754FEA0752001B61EB0201001CA2
:1002E00041F5801149084FEA30000019514132466A
:1002F0002B4603B0BDE8F04F00F090B90098012202
:1003000040000023D0EB020263EBE073009821462B
:100310004FEAE074B8EB000061EB0401E9E783F019
:1003200000435BE781F0004158E72DE9FE4F81EA89
:10033000030404F0004421F0004100944FF0000B4E
:1003400023F0004350EA01045ED052EA03045BD07C
:10035000C3F30A54C1F30A552C44A4F2F3340194B4
:10036000A0FB0254C1F3130141F48011C3F3130342
:1003700043F4801301FB024400FB034E840A970AF6
:1003800044EA815447EA8357A4FB076802958D0A23
:1003900005FB07854FEA932C04FB0C542705029DAF
:1003A0004FEA065847EA1637B5EB08056EEB070C1F
:1003B000870E920E47EA811742EA8312A7FB0201D9
:1003C000B6EB0B0164EB00042B0D43EA0C335E1813
:1003D00044EB1C50DA465146E7FB0201C5F3130417
:1003E0004FEA0B3343EA14534FEA0432019C43EAC9
:1003F0000603A4F10C040294009CCDE900B400F0C3
:100400001CF903B0BDE8F08F00200146F9E72DE9A3
:10041000F04D81EA030404F0004B21F0004514463E
:100420004FF0000A23F0004150EA050220D054EAC0
:1004300001021DD0C5F30A570246C5F31303C1F3E9
:100440001300C1F30A5640F4801543F48013A7EB60
:100450000608101BD64608F2FD3873EB050002D3E0
:1004600008F1010801E092185B41B8F1000F03DACE
:1004700000200146BDE8F08D00204FF480110646B3
:1004800084460EE0171B73EB050705D3121B63EBC5
:10049000050306434CEA010C49084FEA3000921864
:1004A0005B4150EA0107EDD152EA030012D082EA23
:1004B000040083EA0501084305D0101BAB4106D2B6
:1004C0000122002306E000224FF0004302E06FF01B
:1004D000010253101AEB06004CEB085110EB0A0016
:1004E00041EB0B01BDE8F04D00F098B80EB5C10F1F
:1004F00080EAE0700844CA07002140F233438DE8E7
:100500000E000A460B4600F098F803B000BD00F05C
:10051000004230F000400AD0C10D01F56071C0F317
:10052000160042EA0151C2084007114370470020FB
:100530000146704701F0004330B421F0004150EA19
:10054000010206D00A0DA2F56072C1F31301002A60
:1005500002DC30BC00207047440F44EAC104C100F3
:10056000E01830BC00EBC25000F021B8202A04DBB8
:10057000203A00FA02F1002070479140C2F12003B6
:1005800020FA03F3194390407047202A06DBCB176B
:10059000203A41FA02F043EAE07306E041FA02F33E
:1005A000D040C2F12002914008431946704700290B
:1005B000A8BF7047401C490008BF20F001007047E9
:1005C00010B4B0FA80FC00FA0CF050EA010404BF49
:1005D00010BC704749B1CCF1200421FA04F411FA9F
:1005E0000CF118BF012121430843A3EB0C01CB1DE3
:1005F0004FEA00614FEA102042BF002010BC704754
:1006000000EBC35010440029A4BF10BC7047401C2D
:10061000490008BF20F0010010BC704710B5141E3F
:1006200073F1000408DA401C41F1000192185B41AB
:100630001A4301D120F0010010BD2DE9F04D924682
:100640009B4611B1B1FA81F202E0B0FA80F2203299
:100650009046FFF78BFF04460F4640EA0A0041EA46
:100660000B0153465A46084313D0114653EA010082
:1006700019D0C8F14002504600F090F805460E46E9
:10068000504659464246FFF771FF084305D0012006
:1006900004E020463946BDE8F08D0020054346EAD7
:1006A000E0762C4337430A986305E40AA0EB080080
:1006B0000022FD0A44EA47540A3002D500200146D0
:1006C000E9E7010510196941DDE9084500196941AB
:1006D000BDE8F04DA2E72DE9F04D00231A461B1AA4
:1006E0008A4103DB00200146BDE8F08DC1F30A52C8
:1006F000C1F3130141F480154FF0000BD10702D173
:1007000000186D41521E0027044640F2FF11384682
:1007100001EB620A3E468046024600204FF48011FB
:1007200000F03CF8C2197141BB1846EB0100B4EB74
:10073000030C75EB000C04D3E41A65EB00051746B7
:100740000E46241908F101006D4180463428E3DD8E
:10075000F91946EB0600091BA84103D24FF0FF32FE
:10076000134601E0002213461BEB070046EB0A513B
:10077000BDE8F04DFFF752BF064C074D06E0E068BC
:1007800040F0010394E8070098471034AC42F6D3D8
:10079000FFF7FEFC7838000898380008202A04DBB0
:1007A000203A21FA02F00021704721FA02F3D040EA
:1007B000C2F12002914008431946704760EEA00A3A
:1007C00010B541EE010A2DED048BB0EE408A10EE1B
:1007D000900AFFF79CFE41EC100B02F04DFEB0EECC
:1007E000409AF0EE609A18EE100AFFF790FE53EC74
:1007F000192BFFF70CFEFFF79DFEFFF788FE41EC7B
:10080000100B02F0CDFC51EC100BFFF793FE00EE45
:10081000100ADFED0A0A20EE200A10EE100AFFF798
:1008200076FE9FED071B53EC112BFFF7F0FDFFF752
:1008300081FEBDEC048B00EE100A10BD00003443B5
:100840006E861BF0F9210940404200EE100A10B5F7
:10085000B8EEC00A2DED028B10EE100AFFF757FE1E
:100860009FED0C1B53EC112BFFF75FFD0B4C41EC84
:10087000180B2068FFF74BFE53EC182BFFF7AEFC6C
:10088000FFF758FE00EE100A84ED000ABDEC028B63
:1008900010BD0000C7BAB88D06F0363FF800002042
:1008A000401EFDD2704700002DE9F84FDFF888B1F7
:1008B00000224FF001084FF0030A4FF00F090BF12F
:1008C000040E00BF0B6808FA02F42340A3426ED165
:1008D0004D68022D01D0122D0ED1D50800EB850CEC
:1008E000DCF820505607F70E09FA07F6B5430E69F3
:1008F000BE402E43CCF82060066855000F790AFAF6
:1009000005FC07F0030726EA0C06AF4037430760F3
:100910004E68012E05D0022E03D0112E01D0122ECA
:100920000ED18668CF6826EA0C06AF403743876051
:100930004668A6430C79C4F30014944034434460E1
:10094000C4688E6824EA0C04AE402643C6604C6836
:10095000E4006AD5394C256845F480452560246853
:1009600022F0030504F480440094354C2E19D6F887
:10097000084895072F0F09FA07F5AC43314DA842F7
:1009800001D1002529E0304DA84201D1012524E004
:100990002E4DA84201D102251FE02D4DA84201D1C4
:1009A00003251AE02B4DA84202D1042515E03CE0B6
:1009B000294DA84201D105250FE0284DA84201D1BB
:1009C00006250AE0264DA84201D1072505E0254D60
:1009D000A84201D1082500E00925BD402543C6F8FD
:1009E0000858DBF800405D464E689C43F60300D58E
:1009F0001C432C60DEF8004075464E689C43B603ED
:100A000000D51C432C600C4D08352C684E689C4367
:100A1000F60200D51C432C60074D0C352C684E683F
:100A20009C43B60200D51C432C60521C102AFFF4D4
:100A300049AFBDE8F88F0000003C01404438024057
:100A40000030014000000240000402400008024063
:100A5000000C024000100240001402400018024046
:100A6000001C02400020024042694A404261704737
:100A70000AB1816170470904FBE700000148006882
:100A8000704700000000002070B5040004D094F806
:100A90003500002510B106E0012070BD84F8345007
:100AA000204600F071F8022084F8350020680168C3
:100AB00021F00101016000F029FA31492268B0FB00
:100AC000F1F151602F4A6368934206D94FF496734F
:100AD00059434FF47A73B1FBF3F12368491C19624F
:100AE000616891420BD84900B0FBF1F2C2F30B02EE
:100AF000042A01D2042019E0B0FBF1F016E0A3684B
:100B000083B301EBC10202EB0112B0FBF2F242F43B
:100B1000804212052CD06BB301EBC10202EB011134
:100B2000B0FBF1F040F4804040F400402168C8611F
:100B3000D4E90701084321680860D4E90310084399
:100B400021688860D4E9050108432168C8602068ED
:100B5000016841F001010160A563012084F83500BE
:100B6000002070BDFFE701EB4102B0FBF2F2D0E7DD
:100B70000120DBE701EB4101B0FBF1F0D4E700001D
:100B800040420F00A086010000B500680E4987B002
:100B9000884217D14FF4407000901220019001203C
:100BA0000290032003900420049069460748FFF751
:100BB0007BFE0748016841F400110160006800F401
:100BC0000010059007B000BD005400400004024032
:100BD0004038024002480168491C0160704700002B
:100BE000000000200B4810B5016841F4007101605D
:100BF000016841F480610160016841F48071016025
:100C0000032000F051F8002000F006F800F015F87D
:100C1000002010BD003C024010B5044600F05CF915
:100C20004FF47A71B0FBF1F000F02CFF0022214666
:100C3000501E00F019F8002010BD10B5052000F07E
:100C400033F80022BDE810401146501E00F00CB8E9
:100C500000F01F02012191404009800000F1E020D6
:100C6000C0F8001170470000F0B40E4B1B680C4632
:100C7000C3F30223C3F10705042D00D90425191D70
:100C8000072901D2002300E0DB1E012606FA05F148
:100C9000491E214099409E40761E16403143F0BCCB
:100CA00001F057BF0CED00E0064900F007020868AC
:100CB0004FF6FF03184040EA0220034A1043086041
:100CC000704700000CED00E00000FA052DE9F05F30
:100CD000DFF8FCA104460F46DAF80000DFF8F481E3
:100CE00000F00F017B4807F0FF0941F2883508F159
:100CF0000808B94262D28AF80090DAF8001001F0D0
:100D00000F01B9427ED12178890707D5D8F8002094
:100D1000A36822F0F0021A43C8F800202178C9071E
:100D20002ED0616801291AD002291BD0032919D0BD
:100D300000688007002865DAD8F80000464620F0F1
:100D400003000843C8F80000FFF798FE07466068F4
:100D5000012810D002281AD003281ED029E00068EC
:100D60008003E7E700688001E4E700BFFFF786FE45
:100D7000C01BA84259D83068C0F381000128F5D1C2
:100D800089E000BFFFF77AFEC01BA8424DD830684B
:100D9000C0F381000228F5D17DE03068FFF76EFED8
:100DA000C01BA842F9D940E0FFF768FEC01BA8426B
:100DB0003BD8306810F00C0FF6D16CE02178890731
:100DC00007D5D8F80020A36822F0F0021A43C8F82B
:100DD00000202178C9074CD06168012928D0022958
:100DE00029D0032927D000688007002849DAD8F8DD
:100DF000002022F003020A43C8F80020FFF73EFE5D
:100E0000064600E03DE0606801281DD0022829D098
:100E1000032838D0AB464546286810F00C0F28D080
:100E2000FFF72CFE811B5945F6D90320BDE8F09F42
:100E300000688003D9E700688001D6E7FFF71EFE4F
:100E4000811B594502D9F0E7AB4645462868C0F3F7
:100E500081000128F2D10CE0FFF710FE811B5945FB
:100E600002D9E2E7AB4645462868C0F38100022874
:100E7000F2D18AF80090DAF8000000F00F00B842D2
:100E800009D00120D2E744462068FFF7F7FD801B18
:100E9000A842F9D9C9E72078400707D5D8F800104B
:100EA000E26821F4E0511143C8F8001020780007EF
:100EB00008D5D8F80010226921F4604141EAC20146
:100EC000C8F800100020FFF7A7FE0020AEE70000E2
:100ED000003C02400038024010B500F043F80849D9
:100EE0000968F02292FAA2F201F0F001B2FA82F25D
:100EF000D140044A515CC8400349086010BD00005D
:100F000008380240D03700080400002010B5FFF771
:100F1000E3FF074909684FF4E05292FAA2F201F4A4
:100F2000E051B2FA82F2D140024A515CC84010BD91
:100F300008380240D037000810B5FFF7CDFF074949
:100F400009684FF4604292FAA2F201F46041B2FAE9
:100F500082F2D140024A515CC84010BD08380240BC
:100F6000D037000830B51948006810F00C01184857
:100F700012D0441004290ED008290DD11349091F9D
:100F80000A6802F03F030A68550247F6C07204D5AA
:100F9000B4FBF3F003E0204630BDB0FBF3F00B6888
:100FA0000968134092FAA2F2B2FA82F2D34058438F
:100FB0004FF4403292FAA2F201F44031B2FA82F2D6
:100FC000D140491C4900B0FBF1F030BD0838024067
:100FD0000024F4002DE9F84F04460078DFF8188368
:100FE000C64DC0074FF0000648D0D8F80010404664
:100FF000C1F38101012908D00068C0F381000228F3
:101000000AD1281D0068400206D52868800335D51E
:10101000606800286FD031E0DFF8E09209F1020942
:1010200089F80060FFF72AFD074604E0FFF726FD78
:10103000C01B64287ED828688003F7D4207989F8FB
:101040000000606868B1FFF719FD074605E000BFC2
:10105000FFF714FDC01B6428ECD828688003F7D57F
:101060000CE0FFF70BFD074605E000BFFFF706FDAC
:10107000C01B6428DED828688003F7D42078A04FEE
:1010800080074FF0010B46D5D8F80010404611F00C
:101090000C0F4FF0F80A09D00068C0F38100022855
:1010A0000BD19548001F0068400206D428688007CD
:1010B00015D5E06801281ED111E0E068E0B1C7F85D
:1010C00000B0FFF7DBFC814606E000BFFFF7D6FC6F
:1010D000A0EB09006428ADD828688007F6D52868F9
:1010E0009AFAAAF22169B2FA82F220F0F80091404D
:1010F000084328600FE0FCE03E60FFF7BFFC81463C
:1011000006E000BFFFF7BAFCA0EB0900642811D885
:1011100028688007F6D42078000729D5DFF8D8A101
:10112000784861690AF16C0A99B1C0F800B0FFF71C
:10113000A5FC00E086E0814606E000BFFFF79EFCCC
:10114000A0EB090064287DD8DAF800008007F5D507
:101150000EE00660FFF792FC814605E0FFF78EFC8B
:10116000A0EB090064286DD8DAF800008007F5D4F8
:10117000207840075AD560483830016841F08051E6
:1011800001600068DFF880A100F080500090DAF87C
:10119000001041F48071CAF80010FFF76FFC81461F
:1011A00006E000BFFFF76AFCA0EB0900642849D8FD
:1011B000DAF80000C005F5D5DFF83C9109F16809BF
:1011C00089F80060FFF75AFC41F2883A009005E088
:1011D000FFF754FC0099411A514533D8D9F8000063
:1011E0008007F5D4207A89F80000A06878B1FFF76D
:1011F00045FC009006E000BFFFF740FC0099411A53
:1012000051456ED8D9F800008007F5D50EE0FFF7FC
:1012100035FC009006E000BFFFF730FC0099411A52
:1012200051455ED8D9F800008007F5D4A069E8B32D
:10123000D8F80010C1F3810102295AD002283E6675
:1012400005D000E04DE0FFF719FC04464CE0FFF745
:1012500015FC064605E000BFFFF710FC801B642864
:101260003FD828688001F7D4D4E90701084347F63E
:10127000C07292FAA2F2616AB2FA82F29140A26A54
:101280004FF0FF3303EB52024FF4403393FAA3F3D2
:10129000B3FA83F39A40114308434FF0706292FA15
:1012A000A2F2E16AB2FA82F2914000E01FE0084344
:1012B0001149091F0860C7F860B0FFF7DFFB04465B
:1012C00005E000BFFFF7DAFB001B642809D8286897
:1012D0008001F7D50BE000BFFFF7D0FB001B6428AF
:1012E00002D90320BDE8F88F28688001F4D40020DB
:1012F000F8E70120F6E70000083802400038024015
:1013000000004742800E474200700040704738B5E9
:1013100001688A6812F0010F4A688C68C2F3801273
:10132000C4F3801401D002B164B18A68C2F34003EF
:101330004A68C2F3C0123BB132B1C16C01B0BDE822
:1013400030400847816CF9E74A68D24392063BD4A3
:101350008A68D243D20606D4426D42F00202426548
:101360006FF010028A6001688A68D243920609D43D
:10137000426D42F0010242658A6800920A6822F0DA
:1013800040020A6001688A68D24352060AD490F883
:101390005120122A06D0426D42F004024265CA680A
:1013A0008A6800928A68D243D20505D4426D42F021
:1013B0000802426589680091416D002904D001212D
:1013C00080F85110FFF7A2FF38BD70B5040004D0BB
:1013D00094F85100002510B106E0012070BD84F89A
:1013E0005050204600F034F8022084F85100206864
:1013F000016821F040010160D4E901010843D4E90A
:1014000003121143084361690843218B01F4007101
:101410000843E1690843216A0843A16A0843216837
:101420000860A069042101EA1040616A084321684C
:1014300048602168E06A08612068C16921F40061A0
:10144000C1616565012084F85100002070BD000075
:1014500000B50068124987B088421ED11148016862
:1014600041F4805101600068694600F480500590A5
:10147000E0200090022001900120029003200390C0
:10148000052004900848FFF70FFA002202212320CC
:10149000FFF7EAFB2320FFF7DBFB07B000BD0000EE
:1014A0000030014044380240000002402DE9F84F6E
:1014B000044690F851009A4601287DD1F1B3EAB371
:1014C00094F85000012877D0012684F8506022203B
:1014D00084F8510000256565A163A287E287A564B1
:1014E000E564A586E586A0684FF40049484504D127
:1014F0002068036823F480430360A06A4FF4005718
:10150000B84209D12068036823F4005303602068BF
:10151000036843F40053036060684FF482784045E9
:1015200001D1A06870B120680168490603D4016840
:1015300041F040010160E068F0B132E0FFE70120D6
:10154000BDE8F88F84F8505013460A462046CDF87F
:1015500000A000F035F9F3E75346002201212046B0
:1015600001F00EFB48BB2068C268A06B411CA16360
:101570000270E08F401EE087E08F0128ECD813E076
:10158000534600220121204601F0FAFAA8B920684A
:10159000C068A16B0880A06B801CA063E08F401E18
:1015A000E087E08F0128EBD8A06AB84207D1206815
:1015B000016841F4805101E05EE007E001605346BC
:1015C00000220121204601F0DBFA08B10320B7E731
:1015D000E0680028206817D0C068A16B0880A06B65
:1015E000801CA063E08F401EE087A06AB84217D13C
:1015F000534600220121204601F0C2FA50B1606D2D
:1016000040F002006065E1E7C168A06B421CA26384
:101610000170E7E72068C068ADF80000BDF8000081
:10162000606840450AD1A068484502D0B0F5806F97
:1016300004D12068016821F04001016084F8516004
:1016400021688868A26AC0F30010BA4210D178B14C
:10165000606D40F002006065086820F4005008608A
:101660002068016841F40051016084F8505066E739
:1016700084F85050002063E7022061E72DE9F84329
:10168000044690F85100984601286FD131B32AB32F
:1016900094F85000012869D0012684F85060122087
:1016A00084F85100002565652163A286E286E56421
:1016B000A564A587E587A06A7703B84209D12068A9
:1016C000016821F4005101602068016841F4005173
:1016D0000160A068B0F5004F03D007E00120BDE82D
:1016E000F8832068016841F4804101602068016846
:1016F000490603D4016841F040010160E068002818
:10170000606804D0D8B1E08E012818D021E010B173
:10171000E08E012808D1206B411C216321680078EC
:10172000C860E08E401EE0860004000C1FD04346D7
:1017300000220221204601F023FAA8B9EBE7206B32
:1017400021680088C860206B801C2063E08E401EEA
:10175000E0860004000C0AD0434600220221204605
:1017600001F00EFA0028EAD00320B8E726E0A06ACC
:10177000B84204D12068016841F4805101604346B9
:1017800000220221204601F0FBF930B94346012234
:101790008021204601F0F4F920B1606D40F0200076
:1017A0006065E1E7A06818B92068C16880680090AA
:1017B00084F8516084F85050002090E702208EE7B2
:1017C0002DE9F843044690F85100DDF82080012807
:1017D00001D022287ED169B162B15BB194F850008A
:1017E000012877D0012684F8506094F85100012830
:1017F00003D005E00120BDE8F883322084F85100D1
:1018000000256565A263A387E3872163A386E3863A
:10181000A564E564A06A4FF40057B84209D1206876
:10182000016821F4005101602068016841F4005111
:10183000016020680168490603D4016841F0400155
:101840000160E0684FF48271B0F5006F606807D006
:10185000002867D088426ED1E08E012862D06AE00D
:1018600020B188420CD1E08E012809D1206B21687B
:101870000088C860206B801C2063E08E401EE086DC
:10188000E08E80B9A06AB84244D12068016841F472
:10189000805101603EE02068C068A16B0880A06BA9
:1018A000801CA0639EE0434600220221204601F0F6
:1018B00067F9002874D1206B21680088C860206B0C
:1018C000801C2063E08E401E0004000CE08609D1DD
:1018D000A06A00E0C7E0B84204D12068016841F482
:1018E00080510160434600220121204601F048F961
:1018F00000286FD12068C068A16B0880A06B801C95
:10190000A063E08F401EE087E08E0028CBD16068A6
:1019100000286AD1434600220121204601F030F917
:10192000F0BBB8E7206B411C216321680078C860D8
:10193000E08E401EE086E08E98B9A06AB84204D1DD
:101940002068016841F48051016043460022012172
:10195000204601F015F918BB2068C068A16B08701B
:1019600040E0434600220221204601F009F9B8B9BF
:10197000206B411C216321680078C860E08E401E06
:101980000004000CE08607D1A06AB84204D12068A8
:10199000016841F48051016000224346012100E0CA
:1019A00018E0204601F0ECF8A0B92068C168A06BEF
:1019B000421CA2630170E08F401EE087E08E002889
:1019C000CFD1606888B9434600220121204601F04A
:1019D000D7F808B103200EE72068C168A06B421C4D
:1019E000A2630170E08F401EE087A06AB84210D168
:1019F000434600220121204601F0C2F818B1606D73
:101A000040F002000FE02068C068ADF80000BDF8AB
:101A10000000434601228021204601F0B1F820B1A8
:101A2000606D40F020006065D4E784F85160206864
:101A30008168A26AC1F30011BA4210D179B1616D17
:101A400041F002016165016821F4005101602068E4
:101A5000016841F40051016084F85050CAE684F8EE
:101A600050500020C7E60220C5E64FF0E0210428D0
:101A7000086903D020F004000861704740F00400BA
:101A8000FAE7704710B5401EB0F1807F01D3012006
:101A900010BD4FF0E02460610F21601701F059F88C
:101AA0000020A06107202061002010BD10B5FFF7C5
:101AB000E8FF10BD7047704730B590F83820012A14
:101AC00020D0012280F83820022380F839300368C2
:101AD0005C6824F070045C6003685C680D682C43EB
:101AE0005C6003689C6824F080049C6003689C68C8
:101AF00049680C439C6080F83920002180F8381038
:101B0000084630BD022030BD10B5040003D094F863
:101B1000390010B107E0012010BD002084F8380022
:101B2000204600F00DF8022084F83900211D2068BD
:101B300001F0F6F8012084F83900002010BD000003
:101B400008B50068B0F1804F12D10A48016841F031
:101B5000010101600068002200F0010000900221F4
:101B60001C20FFF781F8BDE808401C20FFF770B883
:101B700008BD0000403802400168CA6842F0010216
:101B8000CA600068016841F00101016000207047EF
:101B900070B5044690F83800012817D0012584F864
:101BA0003850022084F839002068826822F07702D9
:101BB00022F47F4282600868502837D00DDC20284C
:101BC00059D005DC88B3102841D151E0022070BD06
:101BD000302853D040283AD13FE060282ED07028DA
:101BE0000BD0B0F5805F03D0B0F5005F2FD110E0CF
:101BF0002068816821F0070115E0CB68D1E9012157
:101C0000206801F0EDF82168886840F0770088606E
:101C10001DE0CB68D1E90121206801F0E1F82068DE
:101C2000816841F48041816011E01EE0CA68496822
:101C3000206801F0E7F85021206806E0CA6849688A
:101C4000206801F0F0F86021206801F0D3F884F8F2
:101C50003950002084F8380070BDCA68496820688F
:101C600001F0D0F840212068EFE700212068ECE780
:101C700010212068E9E720212068E6E7302120686C
:101C8000E3E7704770B50446006801694FF000054E
:101C9000C943890715D4C168C943890711D4E91E0E
:101CA000016101202076206880698007204602D0EB
:101CB000FFF7E7FF04E000F098F8204600F096F800
:101CC000257620680169C943490717D4C168C9430B
:101CD000490713D46FF004010161022020762068C7
:101CE000806910F4407F204602D0FFF7CAFF04E06D
:101CF00000F07BF8204600F079F82576206801692D
:101D0000C943090716D4C168C943090712D46FF043
:101D100008010161042020762068C0698007204600
:101D200002D0FFF7AEFF04E000F05FF8204600F0BD
:101D30005DF8257620680169C943C90617D4C168D2
:101D4000C943C90613D46FF0100101610820207641
:101D50002068C06910F4407F204602D0FFF791FF51
:101D600004E000F042F8204600F040F825762068B4
:101D70000169C943C90708D1C168C943C90704D16A
:101D8000891E0161204600F033F820680169C943CB
:101D9000090609D4C168C943090605D46FF080015A
:101DA00001612046FFF786FE20680169C9434906A4
:101DB00009D4C168C943490605D46FF040010161E7
:101DC000204600F039F820680169C94389060BD420
:101DD000C168C943890607D46FF02001016120461C
:101DE000BDE87040FFF767BE70BD704770470000E8
:101DF00000B5006889B0B0F1804F14D1012000F027
:101E000013FA024600230949684601F02BFC0246FA
:101E10004FF6FF736946064800F03AF94FF48051D7
:101E20000448FEF721FE09B000BD0000BC030020FD
:101E300028010020000C02407047704738B5016847
:101E400004460868CA6810F0010F02F4807207D0D7
:101E500032B1086848680090E06B40F00100E06330
:101E600008684A69C0F3400002F0010238B132B19B
:101E7000086848680090E06B40F00400E063086880
:101E80004A69C0F3800002F0010238B132B108683B
:101E900048680090E06B40F00200E0630868C0F31F
:101EA000C002486900F001003AB130B108684868E2
:101EB0000090E06B40F00800E0630868C968C0F378
:101EC000401001F0200118B111B1204600F0BEFF12
:101ED00021680868C968C0F3C01001F0800118B11A
:101EE00011B1204601F0C2F821680868CA68C0F341
:101EF000801002F04002012570B16AB1CA68204624
:101F000022F04002CA6094F8391032290DD080F8CE
:101F1000395000BF00F022F9E06B002804D084F8AB
:101F200039502046FFF789FF38BD222180F839104B
:101F3000F0E770B5040004D094F83900002510B122
:101F400006E0012070BD84F83850204600F020F8EB
:101F5000022084F839002068C16821F40051C16072
:101F6000204600F0C7FF2068016921F4904101611B
:101F70002068416921F02A0141612068C16841F46B
:101F80000051C160E563012084F83900002070BD74
:101F900000B50068124987B088421ED11148016817
:101FA00041F0100101600068694600F010000590E2
:101FB000C020009002200190012002900320039095
:101FC000072004900848FEF76FFC0022022125201C
:101FD000FEF74AFE2520FEF73BFE07B000BD0000DD
:101FE00000100140443802400004024090F83930AB
:101FF000012B01D0122B2CD139B332B390F83830E9
:10200000012B26D0012380F8383081628285C28579
:102010000021C16390F83920122A18D05FF0220203
:1020200080F839200268D36843F48073D360026873
:10203000536943F00103536180F838100068C168A8
:1020400041F02001C160002070470120704732221A
:10205000E6E702207047000010B54FF6FF7301223B
:10206000094900F015F80849012201F12000FFF7A5
:10207000BDFF002806D1BDE810404FF400510348D1
:10208000FEF7F2BC10BD000008010020000C024069
:102090002DE9F047044690F8390099460D4601288D
:1020A00001D0222858D12DB322B394F8380001284A
:1020B00052D0012684F838600027E76394F839008D
:1020C00022281AD05FF0120084F83900A284E2843A
:1020D0004FF48058E08C4B46401EE084A0684FF0DF
:1020E000000240454FF08001204613D100F0F1FF7F
:1020F00008BB04E00120BDE8F0873220E4E728882F
:102100002168C0F308004860206908B16D1C08E030
:10211000AD1C06E000F0DDFF68B9216815F8010B81
:102120004860E08C0028D5D14B4600224021204653
:1021300000F0CFFF08B10320DDE794F83900322822
:1021400006D084F8396000BF84F838700020D2E7E8
:10215000222084F83900F7E70220CCE7704700001E
:102160002DE9F041752000F091FA732802D000208B
:10217000BDE8F08110216A2000F0B4FA80216B20C4
:1021800000F0B0FA0721192000F0ACFA06211A205D
:1021900000F0A8FA10211B2000F0A4FA00211C2056
:1021A00000F0A0FA0E211D2000F09CFA1C4C002724
:1021B0001C4827606760A7600780478087803E468D
:1021C000384600F031F84FF4FA6507E0002000F0DF
:1021D0002BF8062E02D127606760A760761CB6B286
:1021E000AE42F3D3206890FBF5F02060606890FB6E
:1021F000F5F06060A06890FBF5F0A0F58040A0606D
:1022000007480C30016891FBF5F10160416891FBD2
:10221000F5F14160816891FBF5F181600120A7E74C
:10222000CC030020180000202DE9F04105462DEDDB
:10223000068B84B0BB200022DFF80C848DF80800E8
:1022400010214046FEF714FC4FF6FF74234601228E
:1022500002A9FE48FFF712FA23460E22FC49FB486A
:10226000FFF724F9FA4C04F1100101F10C0015B14B
:10227000012D31D0E5E122786378120212B21A43BF
:102280000B681A440A60A278E378120212B21A4369
:102290004B681A444A6022796379120212B21A43D7
:1022A0008B681A448A60217A627A090209B2114362
:1022B000026811440160A17AE27A090209B211436D
:1022C000426811444160217B627B090209B21143DB
:1022D000826811448160B4E122786378098843EA16
:1022E0000222511ADB4A09B21180A278E37843EA4C
:1022F0000222D74B10339B88D21AD64B12B25A8087
:102300002379657945EA0323D14D10352D895B1B6F
:10231000D04D1BB200EE103AAB80A579E679B8EE4D
:10232000C01A46EA0525CB4E00EE102A103E358035
:10233000257A667A008846EA0525281AC54DF8EE02
:10234000C00AAD1D00EE101A2880A07AE57AB8EE1A
:10235000C00A45EA0020BE4D1C35AD88401BBD4D6E
:10236000AD1D6880207B657B45EA0020B84D1C359B
:102370002D89401BB74DAD1DA880FEF71FFAA5F1B2
:10238000160080ED010A1630B0F90200FEF75CFA83
:10239000A5F1160080ED020A90ED018ABDEEC00A9B
:1023A000FDEEC80A10EE900A0012207010EE900A9E
:1023B000607010EE100A0012A07010EE100AE070AB
:1023C0002846B0F902004042FEF790F80E4646EC6F
:1023D000100B05469FEDA09B51EC100B53EC192BF5
:1023E000FDF7A3FF9FED9EAB53EC1A2BFEF70FF802
:1023F000FEF7A0F80146974846EC105B0C3053EC12
:10240000192B016080ED018A51EC100BFDF78DFF57
:1024100053EC1A2BFDF7FBFFFEF78CF88D491431B6
:10242000086081ED018ADFED900A9048C0ED000A56
:102430009FED8F0A012680ED010A80ED020A0C3023
:102440000323C0ED000A80ED010A80ED020A0C3082
:10245000DFED880AB6EE000A80EC020A1A46C0EDEB
:10246000020A80ED030A7030CDE90060A0F1C401DA
:1024700078482C3000F020FB7C4876499430CDE938
:10248000006014310223032201F1600000F014FB0C
:1024900076480123303800F1C40100900322B8309F
:1024A00000F00CFA71480325A030CDE90050A0F1EE
:1024B000780168482B462A462C3000F0FDFA644823
:1024C0006449C038CDE9005003231A4650312438FE
:1024D00000F0F2FA654801232438CDE9005000F1FC
:1024E00030010322243000F0E7FA604803234C3027
:1024F000A0F1700100901A46783000F0DFF95448DE
:1025000002279C38CDE90070524903231A46A431B2
:102510009C3800F0D1FA4E4803238438CDE900708E
:10252000A0F118014B4802228C3000F0C5FA48484F
:1025300002237438A0F1F80100901A46103800F018
:10254000BDF9434A0221643AA2F1100000F0D4F927
:10255000464802237030CDE9007000F1B00103223B
:10256000783000F0A9FA3B4840491C30CDE90060C2
:10257000032302223039703000F09EFA35480123DF
:102580002430A0F1080100900222183800F0C4FAAB
:102590002F4830495438CDE900600223032224310A
:1025A000C03800F089FA314E01233C3E06F5B67181
:1025B0000322A1F5B070009600F080F906F5BC701A
:1025C000CDE900502349022303228C31CC3800F09E
:1025D00073FA06F5CE70A0F1240100901D48032384
:1025E0001A46BC3000F098FA06F16400CDE90050BC
:1025F000032300F124011A4600F59C7000F05CFAF8
:10260000144896ED000A103880ED030ABDEEC00AAA
:1026100010EE100A0012207110EE100A60710D48C1
:10262000801D0088010A217260720A48801D40885E
:10263000010AA172E0720748801D8088010A217397
:1026400060730122102117E000080240A40100205D
:10265000BC030020180000206E861BF0F921094001
:10266000000000000080664080F1CC3D3802002070
:102670009A99993E000000004046FEF7F9F904B02F
:102680000E20BDEC068BBDE8F081000031B5134C87
:1026900082B0002210212046FEF7EAF99DF80800DA
:1026A0004FF6FF7540F080008DF808002B460122A0
:1026B00002A90B48FEF7E2FF2B46012269460848B3
:1026C000FEF7F4FE012210212046FEF7D1F9281171
:1026D000FEF7E6F89DF800003EBD0000000802404D
:1026E000A401002073B5104D002210212846FEF7EA
:1026F000BFF94FF6FF742346012269460B48FEF7E7
:10270000BDFF2346012201A90848FEF7B7FF044692
:10271000012210212846FEF7ABF940F6FF70FEF7C4
:10272000BFF820467CBD000000080240A401002044
:1027300070B5294886B00024016841F0800101602D
:10274000016801F080010591016841F0010101601B
:10275000016801F001010591016841F00401016087
:10276000016801F004010591016841F00801016070
:10277000016801F008010591016841F00201016062
:102780000068012500F002000590CDE9005469467B
:1027900012480294FEF788F810200090CDE9015409
:1027A00069460F480394FEF77FF82803CDE900053A
:1027B0000C4E0295694630460395FEF775F84FF4C6
:1027C00060400090CDE90154694630460394FEF71D
:1027D0006BF806B070BD00003038024000000240C7
:1027E00000080240000C0240094808494FF48042AA
:1027F00001600849416000218160C0E90312416124
:102800008161C1610162FEF73FB9000000540040E0
:1028100068010020A08601000C480B4902220160DB
:102820004FF48271416000218160C0E903120122EE
:102830004261520282613022C0E907214162816215
:102840000A21C162FEF7C1BD00300140A401002091
:1028500010B50F4886B04FF08041016042F29E01F2
:102860000024C0E901144FF4FA71C0E90314FFF722
:102870004BF94FF48050009069460548FFF788F9FE
:10288000049404A902480594FFF716F906B010BD98
:10289000E40300200848074901604FF416514160E5
:1028A000002181600C22C160C0E904128161C16114
:1028B000FFF73FBB0010014028010020F0B50025C4
:1028C000059F15E0002410E003FB054600EB860C95
:1028D000641C9CED000A01EB860C07EB8606DCED20
:1028E000000A30EE200A86ED000A9C42ECDB6D1CEB
:1028F0009542E7DBF0BD00002DE9F0470C460546A8
:1029000001FB04F02DED028B16460421FDF758FC67
:102910000246B7EE000A0020DFED660A1CE0002147
:102920000FE000BF04FB001306EB8307491CC7ED53
:10293000000A05EB830702EB830397ED001A83ED92
:10294000001AA142EEDB04FB000106EB8101B0EEB0
:10295000401A81ED001A401CA042E0DB0023A1E0F8
:102960001946084617E000BF04FB003705EB870750
:10297000D7ED000A04FB013705EB8707B0EEE01A3C
:10298000D7ED000AF0EEE00AB4EEE01AF1EE10FA2C
:1029900000DD0146401CA042E6DB994223D0002026
:1029A0001FE000BF04FB010C04FB030906EB8C07CE
:1029B00006EB890897ED001AD8ED000A88ED001A99
:1029C000C7ED000A98420BDB05EB8C0C05EB890781
:1029D0009CED001AD7ED000A87ED001ACCED000A35
:1029E000401CA042DEDB04FB033005EB8000D0ED91
:1029F000000A20EE200AB5EEC00AF1EE10FA07D167
:102A0000104600F053FE0020BDEC028BBDE8F087BD
:102A1000002014E004FB030706EB8701984291EDC8
:102A2000001AC1EE201AC1ED001A07DB05EB870181
:102A300091ED001AC1EE201AC1ED001A401CA0420F
:102A4000E8DB00202BE0984205D004FB003105EBC9
:102A5000810191ED008A00211EE098421BD004FB09
:102A6000001904FB031C06EB890706EB8C08D7ED65
:102A7000000A98ED001A05EB8C0C48EE410AC7EDF0
:102A8000000A05EB89079CED001AD7ED000A48EE15
:102A9000410AC7ED000A491CA142DEDB401CA042EE
:102AA000D1DB5B1CA342FFF65BAF104600F0FEFDDE
:102AB0000120A9E7000000002DE9F0430026DDE930
:102AC000077922E000251DE007FB065C9FED110A57
:102AD00009EB8C0C00248CED000A10E003FB064887
:102AE00000EB8808D8ED000A07FB045801EB8808C2
:102AF000641C98ED001A00EE810A8CED000A9C42DD
:102B0000ECDB6D1CBD42DFDB761C9642DADBBDE8F8
:102B1000F083000000000000F0B50025059F15E0DF
:102B2000002410E003FB054600EB860C641C9CEDC2
:102B3000000A01EB860C07EB8606DCED000A30EE9E
:102B4000600A86ED000A9C42ECDB6D1C9542E7DBD7
:102B5000F0BD0907090E002806DA00F00F0000F1A9
:102B6000E02080F8141D704700F1E02080F8001488
:102B7000704700000148FEF7CABB0000A401002016
:102B80002DE9F0471D4690460E460446FDF776FFB8
:102B900007465FEA08004FF000084FF4005A4FF074
:102BA000010926D034E0681C23D025B1FDF766FF6B
:102BB000C01BA8421DD92068416821F0E001416096
:102BC0002068016821F040010160A06A504509D1E8
:102BD0002068016821F4005101602068016841F417
:102BE0000051016084F8519084F850800320BDE8C2
:102BF000F0872068806836EA0000D4D10DE0681CB8
:102C000006D0002DD7D0FDF739FFC01BA842D2D87F
:102C10002068806836EA0000F1D00020E7E710B5B0
:102C2000FDF7D8FFBDE81040FEF740BF30B52248A1
:102C300093B00025016841F080510160006800F008
:102C4000805011901D48016841F480410160006886
:102C5000022400F480401190012000900190800532
:102C6000CDE90640082008904FF4A870CDE909048A
:102C700004200B906846FEF7ADF90CA90D2081E801
:102C800031004FF4A0500F90E002109005210CA8E5
:102C9000FEF71CF8FEF720F94FF47A71B0FBF1F063
:102CA000FEF7F0FE0420FEF7E0FE00221146501E63
:102CB000FDF7DAFF13B030BD40380240007000402D
:102CC0001048016841F4700101600F48016841F04B
:102CD000010101600C4A00210832116002680B4BAF
:102CE0001A400260031D0A4A1A60026822F4802218
:102CF000026005480C3001600249580680390860BE
:102D00007047000088ED00E000380240FFFFF6FE4B
:102D1000103000240148FEF7B5BF0000E403002096
:102D2000F0B50268234B244D244E254F254C4FF01F
:102D3000804C984209D0604507D0A84205D0B042E7
:102D400003D0B84201D0A04204D122F0700E4A68EC
:102D500042EA0E0298421BD0604519D0A84217D013
:102D6000B04215D0B84213D0A04211D0164DA8429F
:102D70000ED0164DA8420BD0154DA84208D0154DC7
:102D8000A84205D0144DA84202D0144DA84203D148
:102D900022F44075CA682A4302608A68C2620A68DF
:102DA0008262984201D0A04201D1096901630121E8
:102DB0004161F0BD000001400004004000080040F7
:102DC000000C00400004014000400140004401406C
:102DD0000048014000180040001C00400020004056
:102DE00010B5846842EA032224F47F440A43224354
:102DF000826010BD826822F070020A4342F007012F
:102E00008160704710B5036A046A24F0010404620B
:102E1000846924F0F00444EA021423F00A020A430D
:102E20008461026210BD10B5036A23F010030362CF
:102E30008369046A23F4704343EA023224F0A00356
:102E400043EA01118261016210BD000010B590F8E3
:102E50003910222903D0322901D0022010BD816807
:102E6000B1F5805F11D00169002901681FD0496860
:102E700001F07F03816A4A1C82620B70C18D491E7A
:102E80000904090CC18518D030E00269816A002A62
:102E90000268526805D0D2B20A80816A491C8162F8
:102EA000ECE7C2F308020A80816A891CF7E74A68E6
:102EB000816A4B1C83620A70E0E70168CA6822F0ED
:102EC0002002CA6090F83910322911D00168CA680E
:102ED00022F48072CA6001684A6922F001024A61E4
:102EE0005FF0010180F83910FFF7B6F8002010BD3F
:102EF0001221F7E72DE9F04101680446086920F442
:102F00004052E068104308612268D06849F20C61C1
:102F100088432369A168E569194363692B43194311
:102F20000143D1602168486920F44072A0691043D0
:102F30004861E26964263225B2F5004F49494A48A2
:102F400022681DD0824201D08A426AD1FDF7F4FF87
:102F500000EBC00101EB00106168B0468900B0FBD6
:102F6000F1F1B1FBF8F6FDF7E7FF00EBC00101EB73
:102F7000001061688900B0FBF1F7FDF7DDFF69E043
:102F8000824201D08A4219D1FDF7D6FF00EBC00181
:102F900001EB00106168B0464900B0FBF1F1B1FBF4
:102FA000F8F6FDF7C9FF00EBC00101EB0010616806
:102FB0004900B0FBF1F7FDF7BFFF18E0FDF7A6FFF2
:102FC00000EBC00101EB00106168B0464900B0FBA6
:102FD000F1F1B1FBF8F6FDF799FF00EBC00101EB51
:102FE000001061684900B0FBF1F7FDF78FFF00EBBF
:102FF000C00101EB001061685FEA4101B0FBF1F133
:10300000B1FBF8F06FF01801484307EB800005EBC7
:103010000011B1FBF8F0216866F31F108860BDE86D
:10302000F081FDF773FF00EBC00101EB0010616858
:10303000B0468900B0FBF1F1B1FBF8F6FDF766FF91
:1030400000EBC00101EB001061688900B0FBF1F7F3
:10305000FDF75CFF00EBC00101EB00106168890027
:10306000CCE70000001401400010014090F8391036
:10307000122903D0322901D0022070478168B1F5AE
:10308000805F016A0BD04A1C0262026809785160B5
:10309000C18C491E0904090CC1840ED017E00988AF
:1030A0000268C1F30801516001690029016A02D078
:1030B000491C0162ECE7891CFBE70168CA6822F041
:1030C0008002CA600068C16841F04001C160002010
:1030D00070472DE9F0471D4690460E460446FDF721
:1030E000CDFC07465FEA08004FF000094FF00108E9
:1030F00008D030E0681C05D095B1FDF7BFFCC01BBF
:10310000A8420DD82068006836EA0000F2D127E016
:10311000681C20D025B1FDF7B1FCC01BA8421AD90C
:103120002068C16821F08001C1602068C16821F079
:103130002001C1602068C16821F48071C1602068ED
:10314000416921F00101416184F8398084F83890A7
:103150000320BDE8F0872068006836EA0000D7D079
:103160000020F6E70148FEF769BE000028010020B4
:1031700003B401984100009850EAC12018BF042010
:103180004A0D18BF40F0010040F2FF72B2EB515FF0
:1031900008BF40F00200012808BF052002B07047B8
:1031A00070B59B482DED020B2DED068B079D25F08C
:1031B0000044A04218DC9748844202DC0AD10698F9
:1031C00040B19DED060BBDEC068B02B0BDE8704032
:1031D00000F00BBA002DCCBF9FED8F0B9FED900B35
:1031E000BDEC068B02B070BD8F48A04215DD8F4844
:1031F000A042D8BF4FF0FF3458DD9DED060B51ECD7
:10320000100BFFF7B5FF042808BF00F0F9F99DED9A
:10321000060BBDEC068B02B070BD9DED060B51ECAC
:10322000100B00F013FACDE9060181489FED828B67
:10323000A0423CDD8248A0421FDD00249FED82AB0E
:103240009DED060B53EC1A2B51EC100BFCF7C6FF4F
:103250009DED060B41EC190B53EC1A2B51EC100BA6
:10326000FDF763F853EC182BFDF759F853EC192BC5
:10327000FDF7CDF8CDE9060149E09DED060B0124EF
:1032800053EC182B51EC100BFCF7A8FF9DED060B2F
:1032900041EC190B53EC182B51EC100BFDF73FF8D8
:1032A00053EC192BFDF7B3F8CDE906012FE0684880
:1032B000A0421FDD02249FED689B9DED060B53ECA1
:1032C000192B51EC100BFDF730F853EC182BFCF7D1
:1032D00085FF9DED060B41EC180B53EC192B51ECBF
:1032E000100BFDF71CF853EC182BFDF790F8CDE907
:1032F00006010CE09DED060B032453EC102B9FED13
:10330000580B51EC100BFDF782F8CDE906019DED4D
:10331000060B53EC102B51EC100BFDF706F841ECAB
:10332000180B53EC182BFDF700F841EC190B4E4825
:103330000621B0EE490AF0EE690A784400F0D9F8A7
:1033400053EC182B51EC100BFCF7EFFF41EC180B72
:103350004648B0EE490AF0EE690A0521784400F0CB
:10336000C8F853EC192B51EC100BFCF7DEFF41ECC5
:10337000100B51EC180B53EC102B002C0EDAFCF751
:103380002DFF9DED061B53EC112BFCF7CEFF9DEDA1
:10339000061B53EC112BFCF7C5FF35E0FCF71EFFB5
:1033A0009DED061B53EC112BFCF7BFFF41EC100BFE
:1033B0002F48784400EBC40090ED001B51EC100B3B
:1033C00053EC112BFCF7ABFF9DED061B53EC112BBF
:1033D000FCF7A5FF41EC100B2648784400EBC40035
:1033E00090ED001B51EC100B53EC112BFCF79AFFE6
:1033F00041EC100B002DA2BFBDEC068B02B070BDDE
:1034000051EC100B81F0004141EC100B01E7000082
:10341000000010440000F07F182D4454FB21F93FB8
:10342000182D4454FB21F9BF0000DC3F0000203E72
:103430000000F33F00000000000000000000F03F2B
:103440000000E63F00000000000000000000004017
:103450000080034000000000000000000000F83F72
:10346000000000000000F0BF0A050000C0040000DA
:103470004A0400000204000000B52DED048BB0EEFC
:10348000409AF0EE609A83B051EC190BFDF723F9E6
:1034900041EC180B18EE100A18EE901A8DED008B07
:1034A000002818BF0120084320F00040C0F17F60D1
:1034B00000F1E040C00F14D019EE101A19EE900A76
:1034C0008DED009B002918BF0121084320F000402A
:1034D000C0F17F6000F1E040C00F04BF012000F0A8
:1034E000AFF8B0EE480A03B0F0EE680ABDEC048B0A
:1034F00000BD70B504462DED028B4D1E00EBC500DE
:10350000B0EE408AF0EE608A90ED000B35F00600D8
:1035100017D053EC182B51EC100BFCF706FF41ECC5
:10352000100B6D1E04EBC50090ED001B51EC100B51
:1035300053EC112BFCF752FE41EC100B35F006005A
:10354000E7D1022D36D0042D1CD0062D1CBFBDECBA
:10355000028B70BD53EC182B51EC100BFCF7E5FE01
:1035600094ED0A1B53EC112BFCF738FE53EC182B8F
:10357000FCF7DBFE94ED081B53EC112BFCF72EFE41
:1035800041EC100B53EC182B51EC100BFCF7CDFE5B
:1035900094ED061B53EC112BFCF720FE53EC182B7B
:1035A000FCF7C3FE94ED040B53EC102BFCF716FE56
:1035B00041EC100B53EC182B51EC100BFCF7B5FE43
:1035C00094ED021B53EC112BFCF708FE53EC182B67
:1035D000FCF7ABFE94ED001B53EC112BFCF7FEFD4A
:1035E000BDEC028B41EC100B70BD10B553EC102BF1
:1035F00051EC100BFCF7F2FD41EC100B10BD00007C
:103600009FED050B10B553EC102B51EC100BFCF794
:103610008CFE41EC100B10BD0000000000000010FB
:1036200002E008C8121F08C1002AFAD1704770478B
:10363000002001E001C1121F002AFBD170470000E9
:1036400001490860704700000401002082B0CDE904
:10365000000121F0004001909DED000B02B051EC03
:10366000100B704730B5AA2400F8014BBB2400F8BA
:10367000014BFF2400F8014B00F8034B941CE4B20B
:1036800000F8024C00F8013C6340002407E000BF52
:1036900011F8015B00F8015B6B40641CE4B29442DA
:1036A000F6D30370D21DD0B230BD000010B5002893
:1036B00021D0114B0022001F196803E0814203D87A
:1036C0000A4649680029F9D152B11368841A9C420C
:1036D00004D1006818441060104602E0506000E019
:1036E000186039B102680B1A934203D10B681A446F
:1036F00002604968416010BDFC000020FDF772FACD
:10370000FFF794FAFFF714F8FFF76EF8FFF784F865
:10371000FFF79EF8FFF7BEF8FEF722FD0D4C20B133
:10372000012291032046FDF7A3F90B48FEF724FA86
:1037300020B9012211032046FDF79AF90122074919
:103740000748FEF753FC20B94FF400512046FDF71F
:103750008BF9FEE7000C0240E40300200801002082
:1037600028010020F0B50B30154D20F00701002492
:10377000144A0FE003688B420BD38B4205D95E1AC3
:1037800043184768C3E9006700E04368136002C05C
:1037900004E0021D10680028ECD12046002802D168
:1037A000286808B10020F0BD064A07481060074AA3
:1037B000121A22F00702C0E9002401202860D7E78E
:1037C00000010020FC00002024040020200600202E
:1037D00000000000010203040102030406070809B7
:1037E0004FBB610567ACDD3F182D4454FB21E93F19
:1037F0009BF681D20B73EF3F182D4454FB21F93F08
:10380000E2652F227F2B7A3C075C143326A6813C8D
:10381000BDCBF07A8807703C075C143326A6913C38
:10382000C4EB98999999C9BF711623FEC671BCBFA4
:103830006D9A74AFF2B0B3BF9AFDDE522DDEADBF0C
:103840002F6C6A2C44B4A2BF0D5555555555D53F24
:10385000FF8300922449C23F6E204CC5CD45B73F3F
:10386000513DD0A0660DB13FEB0D76244B7BA93FB7
:1038700011DA22E33AAD903F9838000800000020AA
:103880000801000020360008A039000808010020C7
:103890001809000030360008000000000024F40081
:1038A0000000000000000000000000000000000018
:1038B0000000000000000000000000000000000008
:1038C00000000000000000000000000000000000F8
:1038D0000000000000000000000000000000803F29
:1038E000000000003480B7B90000000000000000B4
:1038F000000080BF00000000000000000000803FCA
:103900000000803F000000000000000000000000F8
:1039100000000000000000003480B7B9000080BF44
:103920000000803F3480B739000000000000803F75
:103930000000000000000000000000000000000087
:103940000000803F0000803F0000803F000000003A
:10395000000000000000803F0000000000000000A8
:103960000000803F000000000000803F0000803F1A
:103970000000000000000000000000000000803F88
:103980000000000000000000000000000000803F78
:103990000000000000000000000000000000000027
:040000050800018965
:00000001FF
